:20000000004B002061470100FDC90110FDC90110FDC90110FDC90110FDC90110FDC90110C2
:1C002000FDC90110FDC90110FDC90110FDC90110FDC90110FDC901103BCA0110A4
:20003C00FFFFFFFFFFFFFFFF9A100000000000000000000000000000000000000000000002
:20005C000000000000000000000000000000FAFA1400000000000000000000010000010179
:20007C00000000000000000000000000000000000000000000000000000000000000000064
:20009C00000000000000000000000000000000000000000000000000000000000000000044
:2000BC000000007800080230000800000000000000000804FA000000FFFFFF000C1100004A
:2000DC000000000000001D1100000000000000002E010F000000FA0000002F01000000006E
:2000FC00FA000000300100000000FF000000310100000000FF000000320100000000030053
:20011C0000003301000000000300000034010000000001000000350200000000FFFF000021
:20013C00370200000000FF000000390200000000FF0000003B0200000000FFFF00003D01B8
:20015C0000000000FF0000003E0100000000010000003F01000000000100000040010000C2
:20017C0000000700000041200000000000000000610200000000FFFF00006308000000002F
:20019C00000000006B080000000000000000730800000000000000007B08000000000000D2
:2001BC000000830205000000580200008501000000001000000086010000000032000000F0
:2001DC0087010000000032000000000038C40D00C80000008100000032000F0100C50D00E3
:2001FC00900100004000000096000501952B0D00C80000002200000032000F023600010045
:20021C000600000000000000000F000000000000000000000000000000000300FFFF0000AC
:20023C000403FFFF0000FFFF0F00E8030005401F0310000100000000FF3F0F0008000E00CA
:20025C0000000000000000000300010F000009010000000000000000000000000000000065
:20027C0000000000000000000000000000000000000000000000000000000000AD000000B5
:20029C000001363601010001020100010301000104010606080400000C0100340D01000F4E
:2002BC0010040101140100FF1608000020020000220100FF23010001240100FE2501000820
:2002DC002602000028010001290100012A0200002C01000F2E020000300100013101000881
:2002FC00320200FF3401000735010240360100003701000138010001390100FF3A01000FCE
:20031C003C0200FF3E01010F3F0100014001041F41010001420100FF4301008044080000FB
:20033C004E0100084F01000F50010001510100FF5201090A53010187540100015804000054
:20035C005C0400006004000064040000680400006C04000070040000740400007804000011
:20037C007C040000800100FF81010001000120181A18182C34041E000C0E020B040B0A0792
:20039C000800110F00000500B900B300AD00B8001C00300038000800340102000304710404
:2003BC0002046004110470040204020401040204000410046104000414046304730472042A
:2003DC0062044304000413040604000400040404120400040004000400045104640000043C
:2003FC0000040004440400040004000400046504000435048104640005040004830400045A
:20041C006604000400040804090401017101010101011101010131010101010180010001F1
:20043C00100161013B001400630173017201620143010001130106013D0135000401120145
:20045C00000100010001000104010401330133013C014401320136000001000165010001B6
:20047C00350081010001050182018301000166010001000108010901030271023001600213
:20049C001102700201020202020280020002100261023A0041006302730272026202430245
:2004BC000002130238000002000204021202000200020002000204020402370037003C02F3
:2004DC004402000239000002000265020002350281020002050282028302000266020002DA
:2004FC000002080209020000007131010000AD06010002072E000000777C010001072E0011
:20051C000000777C01000325E8000000777C010004037C010000777C010001F77B010001DA
:20053C00F17B010001777C010001777C010001777C010000054F010001777C010001777C15
:20055C00010001777C010001777C010002F77B010002F17B010002777C010000054F010065
:20057C0002777C010002777C010002B93B010002777C0100042745000000777C010003F728
:20059C007B010003F17B010003072E000003072E000003777C01000325E8000003777C01E5
:2005BC000000054F010003777C010003777C010004F77B010004F17B010004072E000004B7
:2005DC00072E000004072E0000042745000004777C010004777C010004FD7B010000054F60
:2005FC0001000104393200000300000000040000EDF701008BF90100DFF90100F9F3010037
:20061C005DF40100D5F8010061FA0100C7F90100B1FA0100F9F2010019F501006DF9010073
:20063C0001F901006DF50100BDFA0100D5FA01009DFA010089FA010043FA010035FA01002E
:20065C00D5F601006FFA0100ADF9010015FA01009DF60100DFFA0100991E0100F55C010019
:20067C0001F00100C1F5010029F10100FDF901007D4F0100FD710100E5710100BDF401005E
:20069C00B1790100A379010059F6010000000000000000002F7B01006578010015F7010010
:2006BC000000000000000000000000000000000000010400003333333333333333333333E8
:2006DC003333333333030100FFFF0000000000000000000000FFFF00FFFFFFFFFFFFFFFF07
:2006FC00FFFFFFFFFFFFFFFFFF4648546573740000000000000000000000000000000000B9
:20071C00000000000000000000000000D906000001000000EC0A000008000000FE050000DC
:20073C0001123456789ABCDEF000000000000000000000000000000003007100300160005F
:20075C00110070003102200350048000070010006100000014006300730072006200430059
:20077C000000130006000000000004001200000000000000000004000400370037003C027A
:20079C004400000000000000000065000000350081000000050000008300000066000000F0
:2007BC00000008000900010371030103010301030103010322030203010300031003000339
:2007DC00000300030003000300030003420300032403060300030003040312032503230303
:2007FC002503230304030403000300030003440300030003230300036503210035038103BD
:20081C00000305030003000300030003250323030803090302040201010101090200A2A6E1
:20083C00A8A0A5A59F95AD96B8B2A4313117191A21241B1D1F31313331313118191A223177
:20085C001C1E2031313431000000000002000000020000000A000000020000000200010048
:20087C00000000000000000000000000000000000000000000000000000000000E0000004E
:20089C008F0000008F0001008F0002008F000300900000018F0001019000000290000003B3
:2008BC008F0001048F0000058F0008048F0000048A000006510000007F0001003F00040022
:2008DC003F0002003F0001007F0002007B756E6B6E6F776E2D696E7374616E63652D6E61F1
:2008FC006D657D007B656D7074792D696E7374616E63652D6E616D657D00C0467B7374614D
:20091C007469632D696E7374616E63652D6E616D657D00C0000000000800000000000000E6
:20093C002000000040000000600000000000000006000000020000008600000082000000CB
:20095C000000000008000000100000001800000020000000C003000080070000000F0000D2
:20097C00001E0000003C00000078000000F0000000E0010000C003000080070000000F005F
:20099C0000001E0000003C00000078000000F0000000F00006088080070880800D2007C078
:2009BC000E2007C01400C080024000800300C0800108C0801E08C08009400080084000808D
:2009DC000A400080FE00000000010002010100030201000200000000030100070401000313
:2009FC00050800000D0101FF0E0800001608000020020000850C0100312F0100BD72010047
:200A1C0091A90000ADBC00001B7C0100E126010045C70000217C0100110D010000000000AE
:200A3C00FFFFFFFFFFFFFFFF00000000000000000101010100C201000300000000000000D8
:200A5C007BC80110C5BC0110D9B2011033C20110BDAD0110C1B101106DBA011065BB01108B
:200A7C001DC00110001000400600000015000000FF000000000000000302FFFF7C2D002036
:200A9C0040000000FFFFFFFFC4090000000000000000000001003A010000000000000000F5
:200ABC0000000000B5D00000E5320100000000000000000101010000100A0000D826002042
:200ADC00800A00000000000000000000000000000000000000000000000000000000000070
:200AFC000000000000000000C33B3D3A5D3A713AA10A8F3A0F3BB309495E850A2F3B853B49
:200B1C00001610160E18151C0212032418580302100258000100000000000000000000000B
:200B3C00000001000000FF7FD42B0020540B00000000000000000000004002400B0000000F
:200B5C0027000000FF00000000010509000408100004081041B5011095A6011015B80110DB
:200B7C0000BE040A00BE0208FFFFFFFFFFFFFFFFFFFFFFFFFFFFFFFFFFFFFFFFFFFFFFFFDD
:200B9C00FFFFFFFFFFFFFFFF3545251502030504FF000000000000008D720100C93801007E
:200BBC0006000500000001020101FFFF000000400F000000B18E0000D1C0011061AD0110BC
:180BDC000A0000009C190020E9610100FB7C010039C90000CB7B010016
:201000003C000000000000000000000034100000000000000000000001000000000000004F
:1C10200000000000000000000000000001000000000000000800000000000000AB
:20103C003400000000000000000000006810000000000000000000000100000000000000E7
:14105C00010000000000000000000000080000000000000077
:2010700030000000000000000000000098100000040000000000000001000000FFFFFFFF87
:10109000FF00000001000000080000000000000048
:2010A0002C0000000000000000000000C4100000040000000000000001000000FFFFFFFF2F
:0C10C000FFFFFFFF080000000000000020
:2010CC0038140000E410000095A1011091A70110A1C2011009B2011041B80110A5BC011078
:0810EC0085BC01102E0000007C
:2010F400280000000000000000000000141100000000000000000000FFFFFFFF0000000093
:081114000800000000000000CB
:20111C00341400003011000065C2011069C101101BC2011091BA011005BC0110E5BB0110EA
:04113C00300000007F
:20114000341400005411000071C20110A5B6011099BF011045B60110B5BA011025BC01104B
:04116000310000005A
:201164002400000000000000000000008011000000000000000000000000000008000000AE
:041184000000000067
:20118800240000000000000000000000A41100000000000000000000000000000800000066
:0411A8000000000043
:2011AC00240000000000000000000000C8110000000000000100000000000000080000001D
:0411CC00000000001F
:2011D00000000000881A002004000000000000000000000020000000701000003000000069
:2011F0001C110000901A00200400000000000000000000000C00000030130000180000007D
:2012100040110000981A002004000000000000000000000024000000481300001800000000
:2012300000000000A01A002004000000000000000000000010000000A01000002C000000D4
:20125000CC100000A81A002004000000000000000000000020000000641100002400000003
:20127000FFFFFFFFB01A00200400000000000000000000002800000088110000240000008F
:20129000FFFFFFFFB81A0020040000000000000000000000580000003C1000003400000074
:2012B000FFFFFFFFC01A002004000000000000000000000010000000601300001800000089
:2012D000FFFFFFFFC81A00200400000000000000000000001C000000AC11000024000000FF
:2012F000FFFFFFFFD01A002004000000000000000000000038000000F41000002800000070
:20131000FFFFFFFFD81A002004000000000000000000000054000000001000003C0000000B
:1813300018000000000000000000000040130000080000000000000032
:1813480018000000000000000000000058130000080000000000000002
:18136000180000000000000000000000701300000800000000000000D2
:0813780002000000B40B0000AC
:041384000100000064
:0413880000000E0053
:04138C0000000F004E
:041390003200000027
:041394000100000054
:04139800F419002024
:04139C00000200004B
:0413A000097C0100C3
:0413A400FDC901106E
:0413A8000000000041
:0413AC00000000003D
:0413B0000800000031
:0413B4000000220013
:0413B80020180020D9
:0413BC00010000002C
:0413C0000C1A0020E3
:0413C400080000001D
:0413C8000000000021
:0413CC00000000001D
:0413D0000000000019
:0413D400080000000D
:0413D8000000000011
:0413DC00000000000D
:0413E0000100000008
:0413E40018190020B4
:0413E80006000000FB
:0413EC0001000000FC
:0413F0004C17002076
:0413F40000000000F5
:0413F80000000000F1
:0413FC0000020000EB
:0414000000000000E8
:021406002900BB
:021408000100E1
:02140A002500BB
:02140C003000AE
:02140E003100AB
:021410002E00AC
:021412000100D7
:0114140001D6
:0814180003000000700B00004E
:081420000000000000000000C4
:0414280000000100BF
:04142C0000000300B9
:0414300083C4011060
:041434003C14000064
:041438003C14000060
:04143C0000000000AC
:041440009000000018
:041444009000000014
:0414480000000000A0
:04144C000C1A002056
:04145000D37701004D
:041454002000000074
:04145800300B000055
:04145C005C0A000026
:0414600009C30110AB
:04146400CF2E010086
:04146800CF3101007F
:04146C0095C801100E
:0414700097C8011008
:041474000000000074
:041478002F0B000036
:04147C000009000063
:041480001809000047
:04148400E808000074
:0214880008005A
:02148A00090057
:02148C0001005D
:02148E0000005C
:01149000015A
:041494000000000054
:041498000000000050
:04149C00000000004C
:0414A0000000000048
:0414A400F37C0100D4
:0414A800E557010003
:0414AC0009690100C9
:0414B000655B010077
:0414B400635C010074
:0414B800494E010098
:0414BC00C521010045
:0414C000F7790100B7
:0414C400F9330100F7
:0414C8000DC801103A
:0414CC001DC8011026
:0414D0000800000010
:0414D40024000000F0
:0414D80018000000F8
:0414DC0028000000E4
:0414E00020000000E8
:0414E4003C000000C8
:0414E8000C000000F4
:0414EC0034000000C8
:2014F0007E482DE9F04F0C4601210170DFF8F491DFF8F481DFF8F4A1DFF8F4B178494FF04C
:20151000000C2027ADF1440D65461F4081F800C0C1490E9391F840600D9205EA020008BF0B
:2015300000287AD10D984FF0E047194662460F4002EA000008BF002843D10E9E0D9B4FF441
:201550008601B9F8B200DFF82CC3CDF82C9012EA060701EA030108BF002919D1C44912EA6F
:20157000060701EA030108BF00296FD0374643460D9E1C8103F138015881002F81E8C00084
:2015900004BF311CB1F1806F60D102285ED111E0374643460D9E1C8103F138015881002F9C
:2015B00081E8C00004BF311CB1F5803F4ED1B0F5505F4BD1186A674643693868214698472D
:2015D00042E04646B749B6F9087091F90000BC42A0F10100087017D1728906F1380003C8B7
:2015F000002904BFB0F5803FB2F5505F08D0002904BFB0F1806F022A02D011F099FB03E06B
:2016100012F048FD15F0FAFE524692F90000401E10706FF00101318114E043466FF0010085
:2016300003F1080108806EB1BE480078832802D08120594608704646316919B160468847DE
:201650002146E8E7CDF82C90B9F8B2000D9A0E9E02212F461140374008BF002900F0E68364
:20167000B24A43F201418142109200F0B583C91C814200F0B1838B490A4691F90010474643
:20169000491E1170B7F908108C4205D043F60401814240F0B083ACE35F4890F840C007F1CD
:2016B000380090E800034FF482062F4617EA090706EA080008BF00281CD10B48383003C8BC
:2016D0004FF400322F4602400F4008BF002A02D111F02EFB8FE312F0DDFC8CE3091B002091
:2016F000501A00206811002048150020561A0020862E00205D46BCF1010F4FF081044FF073
:20171000000B03D0287808B116F094F82C70864C5846109E6778E0815946E7706069317096
:20173000027A417A0F9601F0070302EB0322490995B238BF2D1F09D304F114010A68157AED
:20175000517A01F0070105EB0125AD1E467A36F07F03774EADB240F02B83B5F57A7F00F3D4
:2017700027830A3029460FF001FE216A04F118000522083115F07EFE0520E17EA37E227F49
:20179000E08103EB0120BF4BED1EADB26271224A597892F840300F9AA081C1F3011A002B87
:2017B0000A9208BFBAF1020F00F00283BAF1020F00F3FE8263B110F0070F00F0F98259491F
:2017D0000978862904D100F00701022940F0F082011301F0020102294EDAA378DFF844910D
:2017F00000F00700022835D1D6F80480002B31D1216A09A801220D3115F03CFE0620E081D0
:20181000C04780469E4DB26899F800002F680C9686281AD13FB901E0B813002016F00AF8B7
:2018300030462F6882689DF9240016F052FA9DF9246078775846B8774046FE779047A089C4
:2018500000F0100010F060FD01E04046904715F03FFCB0E299F800005A46862808BF012242
:201870000C965AB1584612F061FCE77805E0C04600000C8C941800200C96A378A7B19BB997
:20189000012F00F09282A189022F03D111F0070F40F08B82032F08D101F00700032804D07F
:2018B00083E2C046571A0020A189080908D311F4405F00F07A82C6480778002F00F07582D3
:2018D000081300F00200022802DA880A80F06D826C484078C0F381098611B9F1010F00F00A
:2018F0006482012E00F06182BA48BAF1020F09D010F80920805D8018C7B2FEB1C8091DD3CA
:20191000BF1E0CE000EB09028019127900798018C7B2C8090ED259EA06030FD0BF1CFFB2E2
:201930000CE0C0468A2E0020BC2D0020882E00205C14002059EA060308BF0227C1F300204E
:201950003A1AA0719542C0F23082ED1B4019090980B2608128BF4FF0250B5844743080B289
:2019700015F05AFEA5782061002800F01E82002174220FF0FBFF0020B4F80C8020711DB935
:201990000A9908F0200008700A98A57903784FF0000B002B33D0002D31D1AB48008808F0AF
:2019B0000708B8F1030F1CD181085B4609D3344991F82E509DB90D681DB16D7E35F07F05A9
:2019D0000DD163B98008D84606D3A0498D6888780DB12846804710B9B8F1000F01D0042037
:2019F00020719B4890F8400010B1BAF1020F01DA14F016FFB4F80C80A57994F804B021690A
:201A100001F174004860886563890B816089A1F85C005FEA18100ED3C5F1030082B2A1F88D
:201A30005C20886D174915F025FD21698A6DB1F85C00801888651348124B4078C0F301125D
:201A50001878A1F80C80002D00F0780040EA02004BEA000008744FF0FF038B730CBF60796C
:201A7000002081F8306081F83A9081F84900E089002FA0EB050085B2E58100F08E8103E081
:201A9000DC0B0020D62D0020206A278129183A460831684615F0EEFCCE48EE19B5B2E58159
:201AB00026694078C0F301110A91317CBB466F46C0F38103C0F3810A002B01F0400847D01C
:201AD000C0F301100023022801D1C8090BD29DF801109DF8000000EB0120A6F844000DF13E
:201AF0000207A6F84200CC49B6F84400B1F85A10814203D04FF6FF71814223D1BAF1030F14
:201B100013D079783878C44A00EB012081B27186B2F85820BF1C01208A4212D0FFE74FF6F6
:201B3000FF728A4218BF181C0BE020693946323016F083F82069B84932304F3115F0D6FA36
:201B500008370346002B00F02B8120462669C07EB4F80C9083111ED00A98022803D0307CDE
:201B7000C00903D309E058EA0A0206D179783878BF1C00EB0120A6F84200032B05D078784D
:201B9000397801EB0021318505E020693946283016F053F8266909F00709B9F1030F33D1D3
:201BB000B64807684FF00008FFB17B7E33F07F0317D096F8300002280ED0032811D107F161
:201BD0006C0006F1280115F091FA50B11CE0C046900B00207C0B0000B7F86C00318D8842F1
:201BF00012D057F80C7C002FDFD1B8F1000F0BD1784F4046207178783B46C0F30111187805
:201C100000F0780008433074114890F8400010B10A9802283ADA0F98A3790778002F35D025
:201C3000002B33D165792779E9200DF1260112F029FD9DF82660924805235EB900F1080163
:201C500007220A70082209E0F01400205C1A0020B813002000F108010B7018224272881C12
:201C7000022200260270CE701FB1027842F0100202700D710B9AA2F87830C2F88410032183
:201C90000FF074FB2669B4F808B0E589B0890009C0F08380B06D69465A4615F0EBFB206990
:201CB000816D59448165276AB0F85C1001225944A0F85C10E9190DF12500083115F0DAFB02
:201CD0006E1CB5B2E58121699DF82500896D087022699DF825709DF82530906D401C9065FE
:201CF000B2F85C00401CA2F85C0007F0070082F82400C3F3C10182F82510608992F82470B2
:201D10008046002F4CD05F4F7F183E78361D8642268145DC206A29183246083105A815F096
:201D3000A9FB3A789DF817C0111D481980B29DF81450E08105EB0C6023699DF8165000EBE8
:201D500005409DF81550042900EB052098610BDD206906A9521E1C3015F08CFB387823695A
:201D70006844C07D83F82600986D05A9324615F081FB2069816D71188165B0F85C10A8EB90
:201D900006077118A0F85C10791E89B26181B0F85C2001818918A0F85C1000F07FF80AE049
:201DB00015F08EFE10F0C4FF05E015F08FFC02E015F08CFC0C96DDF83080D8F80400804719
:201DD000216A0A680023137109682162D8F80810884710E0D62D002040462C4F8078414611
:201DF000401C887097F900003946401E087010F09FFF14F027FF26480B99074F00226FF0E9
:201E1000010690F84000A1F8B2203E8130B11098007828B902E0C0464815002015F0EEFA85
:201E30001C481C4990F90000401E0870174890F9000010B9144800210170164890F90000E4
:201E500088B10D9A0E9F02214FF0E0401140384008BF00290BD00F4890F90000002806DCE5
:201E700015F0E8FC03E00020014605F085FC0A49002011B00870BDE8F08FC046000C0020A7
:201E9000B8180020640B00004E1A0020571A0020B8130020561A0020091B00202DE9F04FA6
:201EB000B84C2069E189226A6589806DADF1440D0E46891808312A4615F0DCFAA81986B253
:201ED0002069816D6D188565206A0122311808310DF13E0015F0CEFA761CB5B20422206A2B
:201EF000E5812918083104A815F0C4FA9DF813109DF8100000EB016023699DF812102D1D4D
:201F100000EB01409DF81110E58100EB0120049015F096FBD863049815F05CF8A3F8400028
:201F3000EA2015F00CF90221B54822690170117C2079084310749DF93E0015F0CAFE82F851
:201F500046009DF93E00118982F84800002082F8470002F174009065B2F85C00401A5168A5
:201F7000091851609089830A18D2030957D310F0070F07D000F00700032812BF081C5068FD
:201F9000401C48E05068C17801F00703491001F0380101EB43014018001D3CE0171C02D177
:201FB00015F048FC2269B889800A2ED379684878C6112AD13E89796600204D780B7805F0FB
:201FD0007F056D0005EBE3157E2D0DD07F2D09D003F07F031818801C5B1880B2991C8642A8
:201FF000EBDC08E0002100E00121801C87F8601080B2864201DA002005E079684118796087
:202010003989091A3981A7F86800506E10B1B2F86800B0B1506850619089000916D292F81B
:202030006000002800F0FA80104611F017FD2269D06C002800F0F280B2F85000002840F090
:20205000ED8015F02BFD0020206119E24FF0000B1546104605A9CDF814B007ABCDF818B0C9
:2020700095F82470CDF81CB006AA05F07EFA002840F0C980059A6E6968682B89311A581A29
:202090001FFA80F80AB915F0D5FBB5F85C0000900196CDF808800698001D03900598A9698D
:2020B000AB6D3A4615300AF09FFE002840F0AB80B64895F860302E89C15D701A288113B132
:2020D000284611F0CBFCAE8906F00706032E02D168680078E87395F80F90732009A914F064
:2020F000D1F9832010A908F059FEDFF8A482DA4651460AE0C278012A03D1002F08BFDC2092
:2021100027D0001D491C0990C9B29DF84000884278DD09988278032E07D00378B3420DD03E
:2021300098F800300BB1022E08D0032EE9D10378032BE6D103465B784B45E2D1BB10B3EBF8
:20215000A20F05DA02F0030207F003039A42D1DD50468146059895F80FC090F814E05146F8
:2021700001E0491CC9B28E4548DD07694B00032E03EB070208D1FB5C032BF2D15278624521
:20219000EFD10AE0BC2D00201278B24205D098F80020002AE5D0022EE3D10698077D002F65
:2021B00008BFB9F1DC0F2DD0A869B0F1FF3F23D0712008A914F066F95346089AA969059844
:2021D000824206D106989A4600EB8A00C068884210D85B1C2C32022BF1DB0698491CB1F114
:2021F000FF3F00EB8A00C16002D1079801218170584608E0DB2007E0DB2004E0DC2002E051
:20221000862E0020DD206870226950709069577850651FB1F22014F092FF22699B4DDFF87C
:20223000749295F84000002800F09F809189984EDFF864B201F00703022B5BD1A778002FF5
:2022500058D15778002F55D121694FF000080DF136008DF83F80283115F0EFFC21690BA852
:202270000A22283115F006F906F11001276908886B6E401C0880786E0DF13F0204219847B7
:2022900004F1100A30B94846006818B19DF83F1080F86810276997F8300002280FD1DAF878
:2022B0000000594602222031283014F0EFFA30B90BF116010DF1360015F0BFFC2769774876
:2022D0000078862807D1708A401C7082B88900F0100010F019F895F8400020B1D5F8881053
:2022F00009B12069884715F0D9FB4046206114F0EFFEC7E06A4B1F7877B3C1F301310229BD
:202310002AD15078002840F0BB809DF83E002070B18A277902F128031C32002F01F101008B
:20233000B0820CBF002008205E4E002131605F46009007F1260001920688197A1A460D2056
:20235000334604F0F1FE10B914F06AFA01E014F05DFE0F482269007838B1D5F8881021B126
:20237000104688470A482269007897890A9207F0070788B1907BFF287CD0032F0AD11046F8
:2023900040680078042807DD74E0C046680B0000F8130020012F6DD1381C3CD0401E53D0B6
:2023B000801E67D19089C0F30130022803D15068007807282DD0108900285BD010464168F5
:2023D0004A1C42600F788446C7739CF824607EB9002F4FD00A2F4DDA0189334EF01910F841
:2023F000010C884209D0082F44D1082905D041E0C07B00283ED00A283CDA60460189491E5A
:202410000181C17B0B3101700A99C87B401CC8731CE0322019E0254E96F8C1000F280DD0A7
:2024300015F02CF950B90A988189091301F00201022903DA4D462D1D2968884796F8F700D3
:202450000A9A1074152000E0162010700A994D4605F1280013F064FB154E7068804795F834
:202470003010491C85F83010B1688847202015F049FA02E00AA812F07FFC4FF0000834E707
:2024900010F056FC11B0BDE8F08FC046B813002078190020DC0B0020580B00208A2E0020F1
:2024B000882E0020BC18002030080000A40A00205C1400202DE9FE4FE54980460122A1F1A0
:2024D00030000260DF480768002FFCD0DE4ADF4EC027E048E04B17603268920808D232463D
:2024F00052F8042C03F14104120C42F0F00222704FF0000A8346C1F800A0DFF864C3DBF809
:202510000810D64D0191880E43D2480E41D3802018744FF6D802A3F8512018702868C0F3A7
:202530000464162CA8BF203C1F460F3F387800F01F001628A8BF2038844223D0624602F15B
:20255000980EDA4ACEF800A0261A022E05DC16F1020FB8BF6FF0010600E002263018166827
:2025700000F01F06844246F4F856A7F866604FF001061660E8D11068374617601068CEF864
:202590000060106828460068C0F30420162808DB06E0A5F1D0000068C0F30460162800DBA1
:2025B000203800EB2170401C162805DA10F10A0FB8BF6FF0090000E01520DE4F00F01F0074
:2025D00040F4F850A3F85900386880083ABFEA48C0F800A041F04061019E6246A5F13804E5
:2025F000C80E8F0E80F0010000F00100106087F0010000F0010090602068C0F38367C0F355
:202610008F21B00C23D2304640F3072000280BD542425046490805D17F0806BF0127391C67
:202630004FF6FF71521EF5D1002810DD4FF6FF72490041F001018A4207D27F0047F00107F5
:202650000F2F92BF01210F27111C401EF0D141EA0741182013F046F92068D24E2768C94CFE
:20267000A6F10409C0F3870107F0030041EA0021D9F8040040F2FF3253468FB22C21466818
:2026900000972746A7F14000B0470C3D2868C0F30D011C2013F026F9B84955F8080C0140BC
:2026B00000F07C400143142013F01CF955F80C1C01F47C000904090C0143102013F012F944
:2026D000624955F8042C0968C2F30350C2F30345490813D2DBF800100B0510EB237003D4BE
:2026F0001028A8BF0F2000E05046090415EB217503D4102DA8BF0F2500E0554645EA001575
:2027100002F47F4002F0FF01B8F1220F40EA054041EA000124BF02F0804211430C2013F073
:20273000E1F8974DB8F1220F32BF01202868C0F30070B8F1220F4FEA400040F0200084F80E
:20275000090126BF2868C0F3407001208E4EB8F1200F40F0100084F8090138BF514606D385
:202770003168C80C00F44070C1F384510143282013F0B8F8B8F1200F26BF3068C0F3015017
:202790005046B8F1220F4FEA400040F0600084F80C0126BF2868C0F3C0605046B8F1220F6F
:2027B0004FEAC00040F0800084F8010126BF2868C0F345505046B8F1200F4FEA800040F4CA
:2027D0007C40A4F89C0138BF70490AD3306801038A15920501F47C1100F00F00114341EA95
:2027F0000031082013F07EF84FF48000A5F1D0012060674A886D40F21E236FF31F408342AE
:2028100016D90868030E13F00F0F03F00F01C0F3034018BF491E072805D006280EBF0720BA
:20283000801C00F00F0041EA0011A2F108000170DDF804C0CCF381477F1E13D07F1E3BD05D
:2028500036E0C0469402224300600C40B03F005040100940AC3F00501562084088130050E8
:202870000000204328460068810C21D24FF480412160D2F80210430AC0F3033703F080037E
:2028900021F08F010B4347EA0301C2F80210D2F80130060A66F30303C2F80130116800F07A
:2028B000E70721F0E70147EA010004E02C2009404FF00040224610603B480068C0F3C007BA
:2028D0000FB94020A0624FF40070206428684027C0F3C14040F0300084F8C800CCF38150A8
:2028F00050B3401E03D0401E1FD002211EE0012013F01AFC06460420314610F0E1FA042006
:2029100013F012FC8642FAD12248066826F07F4013F060FAD9F81400036807214FF06022C0
:20293000300E98474FF4806020600321042010F0C7FA08E0000009400420012110F0C0FA8D
:20295000154813F047FA203D2868144947F6180600F03F0084F8CB0F144B0E80D9F80020BE
:202970001868D1680220884711480D4D076001212960BDE8FE8FC04694042A43FCFCFC00A7
:202990008C13005040A00C409813005000803F400A600840A83F0050BD37860070B00C4043
:2029B00094046042A4010010B03F00502C20094000600C402DE9F04FADF18C0D1C911E93AE
:2029D000CC491D920A6806460DF156000260496841603046694612F035FF00281F9004BF68
:2029F0000020229000F0F78102200027B61CDFF84CB32090D34D2297304602A911F0ABF84E
:202A10005FEA000900F0E48122990EA816220EF0ADFF9DF809707F1E00F082807F1E40F042
:202A3000CF81B9F10A0F40F3D681B61C316804A80160361D318805AF42F20B0039800DF1BB
:202A5000160111F0B5FABDF81600BDF81410884200F3C181B61C16F8010B16F8017B16F878
:202A7000014B8DF8380016F8011B8DF839700EAA8DF83A40304606F0AFFCBF490978002866
:202A9000064400F0A8811F9C012904F1020400F091814FF400500DF14E0111F089FA0DF17F
:202AB0004E000DF15601082213F0F0FE40B11C990DF14E00082213F0E9FE002840F07A81EF
:202AD00042F2010004A907F0EBFD42F20B0005A907F0E6FD42F205000EA907F0E1FD0DF19B
:202AF000390142F2060007F0DBFD0DF13A0142F2070007F0D5FD0DF13B0142F2090007F0D8
:202B1000CFFD9DF83B0028B1022840F0538142F2030001E042F20D000FA907F0C1FD49E112
:202B3000B9F1040F40F35781B61C16F8010B16F8017B16F8014B8DF8380016F8011B8DF881
:202B500039700EAA8DF83A40304606F045FC0028064400F040811C9806A906F0E9FD9DF861
:202B70003600002840F00A819DF83B0000287AD195F83170002F00F0FD8095F83300874296
:202B900007D095F88C000A2801D10AF07BFEA86B1EE0AF6B4FF400500DF15E0111F008FAA0
:202BB00013F080FF4FF0FF08229C2190A24695F83100A04240DCA86BB8F1FF0F08D008EB95
:202BD00088040019007913F05DF8A86B071923D195F831300746002B08BF229C19D05846D6
:202BF000229C40681946D8467F1F7F1DFA782AB1491E04F10104F8D17F1D0AE0804795F857
:202C10003310491C85F83310D8F80810884795F83130A34200F094801C980CF0A9FF3871AD
:202C30000120F870FC788DF8364038798DF83700229B8DF82330A1E0387911F001FD014612
:202C500008220DF15E0013F021FE40B138880104219815F00AF882453CBF8246A046641C56
:202C70007F1DA4B2A3E795F83070002F00F0828095F83200874207D095F88C000A2801D1FE
:202C90000AF000FE686B1EE06F6B4FF400500DF1660111F08DF913F005FF4FF0FF08229CF7
:202CB0002190A24695F83000A0424DDC686BB8F1FF0F08D04FEA48140019C07F12F0E2FF71
:202CD000686B071925D195F830300746002B08BF229C1CD0DBF80400229C1946D846203FB4
:202CF0002037BA7F42B1491E04F10104F8D120370DE0C0468C0B0000804795F83210491C3B
:202D100085F83210D8F80810884795F83030A34216D02299384620220EF028FE1C980CF026
:202D300027FFF8770123FF2039462022BB770446787206A8FC720DF07DFB1FE05C14002064
:202D5000612055E060100020F87F11F079FC014608220DF1660013F099FD38B1796821983F
:202D700014F083FF82453CBF8246A046641C2037A4B297E764203BE0B81300209DF836004D
:202D90000EA9162240F004008DF8360008A80DF051FB1F9C9DF83B00A41C40B19DF84D70BE
:202DB0000FA8394610F07CFB3F1A8DF8357006A80FF02EFE20984844801C80B2209003E055
:202DD0001F9C4E44B61CA41C209884423FF714AE2098022803DC229A6720114604E01F9A96
:202DF000911C121A2298921C1D9B19801E990A8023B0BDE8F08F70472DE9F04F0320ADF12C
:202E1000540D12F0FFFFCD4C0025022004F11C0141F80C5F401E8D60FAD104F14000A946F1
:202E3000062701467F1E21F80C9BFBD14FF0080AC549A0F800A0C54A8160C549121D22F00F
:202E50000303CF1A2762A361E361A66904F11C08944618460A46B14200F2AC81B910E82708
:202E700000EB810121F8049C4FF6FC761F8006EA0C0100F1E803521A3746236107EA02018C
:202E9000EC39A0F8E81028461CF0ECF96061CB49D8F80000DFF8288320610A6808F10C00EF
:202EB000026049684160CA498346524613F0EEFC28B9C84801685A46116040685060C6481C
:202ED000C64FC0F8B470C0F8BC50C0F8CC50C44EC0F8D050C34BC0F8B860C34AC0F8C030DC
:202EF000C24FD0F8B410C0F8C420C0F8C87009B1284688471CF032FABD4ECDF83890294663
:202F10000C2206F124000EF031FDBA4F0222ADF820A041F27073B762F08CADF82220616A3D
:202F3000F3621027099740F01900F08408A8884700280CBF0A9F2F1C0120ADF82CA0616AD5
:202F5000ADF82E000BA888479DF83000444620700D99616077B1D021397087F80190B870CC
:202F700087F8039087F804903946BD600220FD6012F01AF8A049182001221CF029F9E22079
:202F9000594614F03FFC18201CF00EFC60706068B046C8F808000BF09FFCA24F08F17C00A3
:202FB000A060D8F80850954C4946A762F520A56014F0F8F8924D05F10C0005F118010DF065
:202FD000B9FBA8600D2014F009FB00B1CA460E2014F004FB08B94AF0100A192014F0FEFAB4
:202FF000012808BF4AF0200A8649A86814F026FD854905F12800C82211F006FA83486860FD
:20301000BAF1100F11D1A06A78B1C2686AB1FF204FF6FC778DF81000F81CADF8120004AE93
:20303000ADF8140096E803009047794F07F1100007F11C010DF07EFB3860484614F022FDCB
:203050004E46BD1C824605F8029F02206870304613F0A8FD014638685246C9B212F0A2FADD
:20307000761C052EEFDB6B4907F134004FF4FA7211F0CAF9A06A002845D00769DFF898A197
:203090006FB10094514612A80A688988026012AE818096E8030001234A46B847A06A00280F
:2030B00031D0C26852B1514612A80B688988036012AF818097E803009047A06A18B307693A
:2030D0000FB306208DF80800ADF80A0010AEADF80C9002AD009695E803004A460223ADF89E
:2030F0004020B847A66ABDF840007769A08057B1BDF8400002AE401CADF8400096E80300ED
:20311000022210ABB8472FA014F012FBA06A062600282FD007696FB38DF818600425ADF827
:203130001A500EA8ADF81C9006AB009093E803004A462B46B84768B902E0C0465C140020B6
:203150000E981930814615E04DF901008B2E0020004B00208DF818604846A76AADF81A507E
:2031700006AB0F907E69ADF81C9093E803002A460FABB047CDF8389048460EF0BDFAE02048
:203190000C2114F00FF8254904F13000642211F03BF92349E06040F6B83204F1540011F083
:2031B00033F92061012108F1020013F0CDFE00F049FCFCE726F8029B4DE6C046C8FF010093
:2031D000241A002054492053656E736F7200C0469C0B0000F012005008020020894B01004C
:2031F000A9500100E55001007D550100FDE400004812002020BF0200856800000C0D00205A
:203210000017002099510100ED7201009D7401000416002025F60000BC0B0000C5700100B8
:20323000B37B0100BC0200202DE9F04F0C46C44F01687962416880687960ADF14C0DB860FA
:20325000204612F03BFA4FF008084FF0010A06A8ADF81880796AADF81AA08847B94E9DF890
:203270001C1071700899716108B113F0EFFD20688047786880474FF400558346ADF800809A
:203290001E200195796AADF802006846884712F0FDF8AD4C2068406880472068C16810A8F3
:2032B00088472068836810AA002001469847606008B913F0CBFD13F081FFA448A54DA44A21
:2032D0003061A54C1560A6495460A44BD160A54DA6489360A44C1561A54D546100F118013A
:2032F0002964AA64A34B2B651439696403F14002EA64A14B6B6103F16E01A961A04BA1490D
:2033100019609E4A6A622B669F4959609F4999600024B46080F840409D49D9609D4999612E
:203330009D4999629D499E4A99639F4B13619F4B53619F4BD3619F4B13629A4B5360B649C2
:20335000C0F8A0109C4B1C635C634FF0FF0983F8389083F83B4083F83C4083F83D4011222E
:20337000AA81974A8264954B4364974A0265954BC364974A8265954B4365974A0266954BFC
:20339000C365974A8266954B4366974A0267954BC366974A8267954B4367974AC0F88020C3
:2033B000944BC367964AC0F88820944BC0F88430954AC0F89020934BC0F88C30944AC0F83A
:2033D0009820924BC0F89430924BC0F89C30934A1460934B83F800A05C80022013F02EF9F9
:2033F0000222F062494614F078FCF01C0222494614F073FC022013F021F9DFF82892C9F87D
:20341000000008B913F022FD484600682146022214F063FC11A80FA912F054F8F06A9DF827
:203430004410421C01709DF8440010702C709DF84400B07013F0E6FAB061796AADF8088067
:203450001420ADF80A0002A888471525ADF810800398ADF81250796AF06104A88847734B82
:203470001C70714D6C70AC7005982C61801E30626F4A147040F2F63014F0CEF806466E6126
:2034900016B914F0D7F96E699DF8290009964FF47A798DF8284009A9424600F0F0008DF883
:2034B00029006869ADF82A9013F0E4FF2E626C626048A0F8009011F0D3F95F4D287801284D
:2034D00003D02046014604F057F95C4804705C4E34702878012803D02046014604F04CF930
:2034F000B9685846884701F017F813F07BFF5548007811F0FDFE5046214604F03DF911F078
:20351000FBFB514804702878012803D02046014604F032F90FF03EFC1820ADF830804B4ED1
:20353000ADF832004A4D0D96796A0E950CA8884708B114F07FF902F001F913B0BDE8F08F59
:203550005C140020581800205C2E00201F420100CC2C00202D92000051300100CD6D01009B
:2035700061D300005DE70000D11B0100B8130020E4140020542C00202604000031EB0000ED
:20359000382D0020F9B70000F5AA0000993D010005570100B130010009160100397C01005B
:2035B000DC0B0020A97F00007DD2000085650100591B010089520100E01700207D050100A7
:2035D000A5830000B11D010065540100A57D000071ED000085540000C5290000F50B0100E2
:2035F00061890000D1CF00009D750100B1A60000C13F010059670100A1DD0000A9B100002D
:203610003D5F0000096E010075F50000093C0100356701000D46010075690100582E002060
:20363000E81A0020782E0020BC2D0020862E0020882E002030120020091B00208A2E002061
:20365000822E00209B0B0020872E00204FF30000F01900202DE9F041B44C0F460646F80B99
:2036700080F0B481A07AB90F80F04681B80880F03781F80A80F01081E07939096DD2B80BF4
:2036900059D2780B0FD2380CC0F0C581206C806840880028FAD0206C806840880128F5D0F9
:2036B00027F4004743E012F09FF938B1B56930466FF4807100224FF00073A847D24904F137
:2036D0007000002214F0DBFAB16800254FF0010840F602022572088884F8038082420AD0EB
:2036F000B0F5C15F07D00A8B4FF61F60104040F43470088306E00A8A4FF61F60104040F450
:20371000347008827574266E13F05EFFD4F85411E26804F5AA73914208BFA84626B1801B03
:2037300003EB8806010BB160256627F48057192014F0A3FA6FE104F1440014F0ACFA061C34
:2037500008D0706830B17568F068B6F92C1000222023A84727F400575DE1012800F0978074
:20377000206C002840F0958000254FF00108E570AD4884F8058014F043F9284613F0D2F90C
:20379000AA4904F170002A4614F079FAA66D13F01BFFA178801B000B012906D1667826B92D
:2037B00094F86810B0EBC12F39D9A14E84F80280A6F1150109686570090A30D3606640F666
:2037D0000900A08294F8210000F0F00040F0010084F8210094F8200000F0F00084F820002B
:2037F000A56114F046FA06F6FF7211686FF0020321F00201116004F11401C6F8FB3F8D4AC7
:20381000C6F8EB1F11688908FCD3C6F8FB3FD6F8FF1F41F00201C6F8FF1F14F01FFB2E4671
:2038300004F1580080E86000666611F017FC207818B9E068403014F036FA7F4806600220DF
:2038500012F09EF811200BF0EBFAE068007C10B90E200BF0E5FA607A18B16572052012F079
:203870008FF8764965710878A57128B10D7004F1EC00042114F01FFAB4F95000B4F9521001
:20389000884214BF022007200CF0EAFC01E00020E07127F00807BEE014F0EBF9054604F112
:2038B0003C0014F0F8F9061C15D0E06810B1783014F0D5F9F068E060284614F0CFFA13F067
:2038D00083FE20665E4814F09BF84FF4006104F1EC0014F0F0F9002027F48067E0719AE035
:2038F00007F0B0FB04F14C0014F0D5F927F0020708B147F002078EE020B1042012F040F84D
:203910000020A07214F0B5F9B1688046088840F6020282420CD0B0F5C15F09D00A8B4FF6F2
:203930001F60104040F43470088308E0C82100200A8A4FF61F60104040F43470088204F155
:20395000580090E80C00002B08BF002A1AD0042012F0EAFBB0B1A56D13F036FEF168401B0C
:20397000728AF060000BF06080188842F06002D209184808F06040F6C41181422CBFB0F5EB
:20399000FA7FF160404614F069FA12F02DF898B1B56930466FF4807100224FF00073A84745
:2039B00004F13C0014F077F9002808BF47F0020702D0192014F061F97569002130464FF006
:2039D00080630A46A84727F0005724E014F051F9014604F1440014F05EF9061C16D0356A73
:2039F000A80813D225EA05003062084614F036FA706870B16DB12A46F068B6F92C10756853
:203A10000023A84705E0C046BDB60000084614F025FA27F4804727B104F1EC00394614F097
:203A30004AF9BDE8F081C04649C40000891501001500044010100440000004607F2E00207D
:203A5000F1B200002DE9F041C04CC14DDFF804836088ADF1680D4108C0F083800CA808A998
:203A70000EF002FE01286DD1404628300068D8B10769CFB1062002268DF808000022ADF870
:203A90000A600FABADF80C2002AE009396E803000C23B84740B9BDF83C00E084109FA76229
:203AB0001198E06213F07CFD0226BDF82210BDF8200084F8206009AA21830FF081FB011CC0
:203AD00002D0C9A014F09EF830460EF06DFFBDF830009DF82C70A5F840000DA985F8427049
:203AF00005F1500014F02FF8BDF8320005F1460609A9A5F84E00304614F025F8BDF8220011
:203B1000B5F84010A5F84400502013F03FFBB5F84E10532013F03AFB4A20314613F072FE00
:203B300095F84210E12013F03DFBB5F844104B2013F02CFB05F10A00102113F005FA012070
:203B5000207008E012F06EFFE06001200EF02CFF002013F0D9FDA01C012113F0E7F92046C4
:203B7000408880080DD3A06A12F094F912F09EFC00B22082608202F007FBA01C022113F0C4
:203B9000D5F96F89780805D305F10A00012113F0CDF96F89B80805D305F10A00022113F056
:203BB000C5F96F89780917D396491820422218AB1BF00EFB95F85A0005F10A06032818BF93
:203BD000042802D1286E12F04DF911F015F93046102113F0ABF96F89B80907D30EF02CF8E6
:203BF00005F10A00202113F0A1F96F89F80907D30BF06CFE05F10A00402113F097F96F89B3
:203C1000780A0AD395F85D0013F07EFD05F10A004FF4807113F08AF96F89380956D395F824
:203C30005C0005F10A06002844D0401E3CD0401E02D0401E36D044E095F85810472013F055
:203C5000B1FA95F85910542013F0ACFAB5F844104B2013F09BFAB5F84010502013F096FA92
:203C7000092701238DF8597095F842008DF85A3016AA8DF85B3064498DF8580018201BF017
:203C9000A7FAB4F85200B4F85010884219D195F85A00012815D1E87898B13046202113F05C
:203CB00053F90EE003200AE05220012113F062FA022004E05220012113F05CFA01200EF0A8
:203CD0003FFE3046082113F031F96F89454617B1A86814F0BFF8E9886878490843D300EA13
:203CF00060010026090939D2010924D200F0100100F02000084331D005F15400074613F019
:203D1000C9FD01282AD0022001460DF0ABFA012003210DF0A7FA384613F0D3FF01210B201C
:203D300002228DF85D1017AB8DF85C0004F1180107F020FF12E0A87870B92FA013F0F8FC95
:203D5000A01C012113F000F908E0C046481200200C1300200C0D002010F0EAFA6E70A81D12
:203D7000012113F0E3F86088002839D10A200825264CADF812004FF0FF37ADF81050616A54
:203D9000059704A8884700282AD10720ADF84850616AADF84A0012A88847149E1596F8B924
:203DB0001B499DF84E20087890420ED19DF84C004A78824206D089684B6C33B100213246F9
:203DD000984702E0304600F0EFF9159840B1ADF818500320ADF81A00616A079606A8884752
:203DF0001AB0BDE8F081C04641757468204572726F723A20307800C05374617274696E6703
:203E10002E2E2E00954601007B7B01005C140020241A00202DE9F04F064692F808B0307DB7
:203E300009AF8846ADF1240D04933528039208D011464D6806F16C0045600C8904810A681C
:203E50000260DFF8C8C238F07F0506BF604600884FF6FF700590F08A800934BF0020082069
:203E70003076F08AC00834BF102080207076F08A400903D260460E30007800E00020B07687
:203E9000F08A41082CBF20240024000928BF44F010047568002108F07F08307D06916D1E78
:203EB00002280EDB0C2808DC0C2803D1022044F40854069044F0030404E00D280CBF022032
:203ED0000120044396F8880008B144F00804210900D328B1DFF8C09299F8EC3013B908B12A
:203EF000DF204DE121096DD396F88950DFF8ACA206F1240133891AF8052007910AEB0001F2
:203F1000097908908918491DC9B2C918B1F57A7F00F3388100284CD0049A039906F18000D4
:203F30000AF04AFB0799002808603FD0806AB0F1FF3F39D070680023401E8DB196F88A1062
:203F5000524600F80119515D491EC9B241B1721892F87F20491EC9B2002900F80129F6D17E
:203F7000079970660968896AB162090E00F8011996F82A1000F8011996F82910089A00F8E0
:203F9000011996F8281005F0030500F8011902F0070141EAC501017071683289091AC9B294
:203FB00070608918318105E0DB2700E0F3277770E9E00023F08A7370C00828BF44F01004C6
:203FD00075686D1E336DA3B9B36D93B999F80511012903D13089B0F5EE7F06DA200904D2B2
:203FF00002290AD144F4005401E044F48054012002E044F4085402200690DFF8A4A19AF835
:20401000000001280CD09AF8400048B196F86B00042805D1022024F48054069044F4005495
:2040300044EA8834B8F1020FA4B20AD0B8F1030F10D1ED1F09F1F801284613F0FEFD6D1E0A
:2040500008E0B9F8DE00001205F8010999F8DE0005F80109069802280CD0B8F1000F15D009
:20407000BBF1000F0CD004990598814208D144F040040BE0BBF1000F08D1B8F1000F05D03F
:204090000599081205F8010905F8011944EA8B24BBF1020FA4B209D0BBF1030F0ED1039938
:2040B000ED1F284613F0C9FD6D1E07E003990888001205F80109087805F80109BBF1000FB4
:2040D00005D00498011205F8011905F801093878F0B934480178307D0D2814D068B9306D5C
:2040F00028B999F8C800411C89F8C8100AE099F8ED00411C89F8ED1004E099F8D600411CD5
:2041100089F8D610014605F8011903E07E0B002044F48074201205F801092C7070683189AB
:20413000401B7560C0B240183081200927D3B06D00B130629AF8400010B1307D0D281ED1DD
:20415000726A12F1150002D113F074FB726A916A481C9062306A3289B162471B0092D21BA0
:20417000019090B20290706A96F888202B46153007F03EFF00281CBF7070071C07D10020D2
:20419000707005E0E5277770F32012F0D8FFF8B209B0BDE8F08FC046A40A0020640B0000A1
:2041B000B8130020C12D0020B0B50446BC480768ADF1480D002F00F0AC812078401E112866
:2041D00000F2A781DFE810F06E0156013C0127011F010801F100E300C300B2008D005D0067
:2041F00053004200A5012A001C001200F86B002800F08F81684621460CF0C8FDF96B86E1F0
:20421000386C002800F085816846002101220DF0ADFB60788DF80000396C78E1F86A002850
:2042300000F07781684600210E220DF09FFBA11C684613F06BF8A57BA1890022ADF80A10F4
:2042500005B101228DF80C20F96A61E1B86B002800F05F816846002102220DF087FBA57875
:204270008DF8015060788DF80000B96B4FE1786B002800F04E81684621460CF087FD796B64
:2042900045E1386B08B36846002114220DF06EFBA5788DF80150A3680193A289ADF8082095
:2042B000A17B8DF80A1060788DF80000E57B8DF80B50237C8DF80C3094F911208DF80D20C6
:2042D00061690491396B684688476068002800F020810146F22008700020487010F064FEC2
:2042F00017E1B86A002800F014816846002124220DF03CFB6078A11C8DF800000DF1020084
:2043100013F004F804F10C0103A812F0FFFF257EE08A04F119018DF818500B22ADF81600F0
:204330000DF119000CF086F8B96AF0E0786A002800F0EF806846002102220DF017FBA57861
:204350008DF8015060788DF80000796ADFE0386A002800F0DE806846002112220DF006FB5F
:20437000658862796078ADF8025023798DF80520E11D8DF80000A5798DF804300B220DF1CB
:2043900007008DF806500CF055F8396ABFE0F869002800F0BE806846002101220DF0E6FA1A
:2043B00060788DF80000F969B1E0B86910B120460FF07EFBA07D002800F0AB80A07820B98C
:2043D000A069002800F0A58003E0A069002800F0A08012F007FB9CE07869002800F09980D1
:2043F0006846002113220DF0C1FA6D46A01C0168406829600B22686004F10A0102A80CF04D
:2044100019F8796983E03869002800F0828020460BF006FA7DE0F86800287AD0684600211C
:204430000E220DF0A3FA6078A11C8DF800000DF1020012F06BFFA089ADF80C00F96866E09B
:20445000B868002865D06846002114220DF08EFAA01C01686D46296040686860A07A0B222D
:2044700004F10B018DF808000DF109000BF0E2FFB9684CE0786800284BD06846002110224A
:204490000DF074FA60786588211D8DF800000B22ADF8025001A80BF0CDFF796837E0C04687
:2044B0002C1A00203868A0B36846002119220DF05DFAA01C01686D46296040686860A07A4A
:2044D000410824BF01218DF80810810824BF01218DF80910C10824BF01218DF80A1001093E
:2044F00024BF01218DF80B10C10924BF01218DF80C1030F07F001CBF01208DF80D000B223D
:204510000DF10E0004F10B010BF094FF39686846884712B0B0BD70472DE9F04FC34F4FF046
:204530000008ADF1140DC94CF868CDF8088000288DF80C8036D1CF48BD498438006881429E
:2045500013D0BC49814210D0BB4981420DD0BB4981420AD0BA49814207D0BA49814204D044
:20457000B949814201D013F065F911F01BFC012814BF40460120F87011F070FE206A00F127
:20459000200120B913F056F92046016A2031096807F1140088474FF4FA70F884AC4EBE620E
:2045B0000625FD62E36993F82660DEB9A94893F825600278964215D041468801A0EBC100D9
:2045D000181890F8266036B990F82550491CAA42C9B2F2D103E090F82510914202D111F0CB
:2045F0006DF8E3699C49606A65C881E86500F878012814BF40460520DFF860B2984D0870F3
:204610009BF8356126B998690068C5F8A40005E0D8690068C5F8A40012F0EAFC632004A9B1
:2046300010F030F89BF8070111F02CF8B5F896C09BF8072105F1880682462CF0070C812A9E
:204650004CF0010CA5F896C003DB842A0EDB862A0ADB306940F00F0030619AF80E100529BD
:2046700014BF2421292106E0292100E02121306940F00F00306185F89C10717D812A01F05A
:204690003F01717501DB842A19DB9AF80A306BB99DF810203F3262F305017175F28A4FF63E
:2046B000C07303EA020141F0180113E09DF8102001F0C00102F03F020A43114603E021F048
:2046D0003F0141F002017175F28A4FF6E071114041F02001F182BAF80C209AF80E100A238D
:2046F0000CF0010C491D514391FBF3F1C9044CEA1141F181BAF80C101923890391FBF3F16A
:2047100061F31C20E3693061308B93F8242062F30200308393F824104FF6F77909EA000021
:2047300001F0080101439BF9F60031830EF058FC09F10801814218BFA5F8A200DAF80410D9
:20475000DAF80030BAF80800E269401E414303EB51004FF47A71B0FBF1F0A5F8A800106AA8
:204770000078A5F88A8085F8AC00C5F88C80707B00F0F00040F00100707313F095F9C8B927
:20479000BAF80C00374AB1FBF0F0C0B21070B1FBF0F078709BF80701022806D0842809DBAD
:2047B000862807DA05215C2001E00221A8202E4A51701070F868256ADFF8B49018B34046D8
:2047D0000FF08EFE38799BF80711884211D179799BF83521256AF86891420CD10221424611
:2047F0008DE806002D6D4346314602AAA847E66013E0256AF868696888470120236A1B491F
:204810001D68087000E02D68134907F1140348463246A847F860606AA0629BF807019BF864
:204830003561387105B07E71BDE8F08F8818002000F0022000F0012000F0002000800220CC
:204850000080012000F082000080002048150020E9670100AB0B00203C2E0020A40A002099
:2048700068110020DC19002078190020081B002000290020181300502DE9F04F09AFADF117
:204890003C0D08900A92388809911E46ADF81800101C08BF002000F08481002700F10109E6
:2048B0004FF0FF3A4FF0010BB8466CE1252940F063811078521C0A922D2818BFADF806808F
:2048D00005D15846551CADF8060010780A9530281CBF4246434605D10A9908785A465B4693
:2048F000491C0A912A28CDF80080554616D1306804930A99CDF808A0C01C4B1C20F00300FA
:20491000001D306050F8044C0A93002C0878009418D5ADF806B06442009413E044460AE07C
:20493000610001EBC40140180A99A0F1300408780094491C0A91302801DB3A28F0DBCDF85B
:2049500008A004932E282BD10A9908782A2801F101010A9111D13068CDF80880C01C20F0FF
:204970000300001D306050F8045C002D48BF454608782B46491C0A9111E0454643460AE030
:20499000690001EBC50140180A99A0F1300508782B46491C0A91302801DB3A28F0DB029344
:2049B0000AB1224604926C2804D04C2818BFADF8048005D10A990878ADF804B0491C0A9100
:2049D0000BA9CDF80C800FAB07916428059300F08B80692800F08880BDF818C0752872D05C
:2049F00078286ED06F286AD0702850D063283DD073281ED009980A990128A1F101010A9183
:204A100015D96B490C68B5F1FF3F03D0A84288BF6D1C00D8099D029508A80AA932466B465E
:204A3000A047C7190A99039801F1010974E040462AE030680A99C01C20F00300001D3060AA
:204A500050F8040CBCF1000F01F10109014608B955A00146079112F02FFE0390B5F1FF3FB4
:204A70005BD0A842C4BF281C039056E03068C01C20F00300001D306010F8040C5D468DF80D
:204A90002C000A990395584601F1010945E0082035680490E81C20F00300001D306050F87B
:204AB000041C082210230FA80DF09EFC401E0790402101700A99079801F1010929E00823E2
:204AD00002E0102300E00A230A99306801F10109C01C20F00300001D306050F8041CAA427D
:204AF000BCBF2A1C049210E00A99306801F10109C01C20F00300001D306050F8041CAA4238
:204B1000BCBF2A1C04926FF009030FA80DF06CFC0790059D281A0390009C241ABDF80650B4
:204B300000945DB906E008A8202109AA11F045FC009C7F1C641E0094F5D503980546401E94
:204B5000039075B9BDF80600E8B10098401E009019D408A8202109AA11F02FFC00987F1CBA
:204B7000F4E70798411C0791017809AA08A811F024FC03987F1CE1E708A809AA11F01DFC3E
:204B90007F1C09F101094A460A9812F8011C401C00290A907FF48AAE089808B141460170F2
:204BB00038460FB0BDE8F08F286E756C6C2900C0EC0B0000BA482DE9F84F0025B94CB74938
:204BD000056094F8E200002800F06381012800F02F81B54E02283CD0032840F05A8151F875
:204BF000250CD4F8B8100029A0F5C060C4F8D400B8BF49420028B8BF4042814226DA4FF04D
:204C10008057D7F8A4014568B4F8BC0030214FF47F42082300903046A847D7F8A40145688E
:204C3000B4F8C00004214FF4F802122300903046A847D7F8A401B4F8D070456820214FF4DB
:204C500040620A2330460097A847012584F8D8501AE151F8258C12F0DFFE2F4600B9012785
:204C70003946924F38680028FCD0B146012609F10409D9F82CA03E6009B112F0D3FECAF386
:204C90000720C4F8BC0012F0C7FEAA4600B9B2463B68002BFCD0D9F800B0BAF1000F3E608A
:204CB00001D012F0BFFECBF38440C4F8C00012F0B3FEAA4600B9B2463B68002BFCD0D9F897
:204CD0001C90BAF1000F3E6001D012F0ABFEC9F38120C4F8D000B8F5C061C4F8B81000F019
:204CF0009C8094F8D80068B9C4F8D410D4F8C000C4F8C800D4F8BC70C4F8C470D4F8D0309F
:204D1000C4F8CC30D4F8D410D4F8BC30002954BF02206FF0010004F1C802176801EB410139
:204D30004018411000EB917107EBA1001060D4F8C810C4F8C43000291CDD1E293CDDD4F828
:204D5000CC0030B93429B4BF15391E21C4F8C81025E02A29BABFD4F8C8000B381E20C4F8FB
:204D7000C800D4F8C4003F28B4BF401C3F20C4F8C4001FE0D4F8CC00032812D011F10B0FF6
:204D9000C6BFD4F8C8000B30301CC4F8C800D4F8C4000028C4BF401E051CC4F8C45003252D
:204DB00008E011F1150FC6BFD4F8C8001530301CC4F8C800C4F8CC504FF08057D7F8A40145
:204DD000B4F8C43030214FF47F424568364800930823A847D7F8A40104214FF400321123B4
:204DF000456831480096A847B4F8C860D7F8A40104214FF4F802122345682B480096A84774
:204E1000D7F8A40120214FF440620A23B4F8CC60456825480096A84701E084F8D85040F28D
:204E3000FF50404502D8801C40452DD208202EE051F8251C1E4F4BF2F5204843060A3868DA
:204E5000C0F3814001280AD111F030FB10F0E8F812F0EEFD3111C010484306EBE03694F8A1
:204E7000E50030B91348006820F07F408019460801E084F8E5501048310C06600127416085
:204E90000E4D8760287808B90B2000E0052084F8E40004F081FFBDE8F88FC0462D400C4070
:204EB0002C500C404C0F002000A00C4000800C40B43F0050102009403C600C40D10A000068
:204ED0002DE9F04FA34EADF1340D37680A9017B912F0B0FC3768A048DFF894A20578002DA8
:204EF0003ED00025388979689C4B0795C400097818781034890906D340F6485191FBF0F18A
:204F1000091901F5AF743B7D60438400352B0CBF2F1C4FF4FA570DF12601E8200FF0B2FB84
:204F30009DF82600032808BF44F620673068007D3C19352807D111F0A9FB014630686C3034
:204F50000EF0AEFA4443022057468DF8200007F10C000068069406A908F016F980480570B7
:204F700080490120804F08703978012902D0002102F002FC30680489456811F043FEDFF847
:204F9000F4812888000943D331684046403890F84070002F3CD081464A6A4F6E906AB0F1E0
:204FB000FF3F23D017B3431C93628862060E07F8016991F82A0007F8010991F8290007F8BE
:204FD000010991F828003870086A00940190401B201A80B2029091F88820486A8B6A153051
:204FF00019462B4607F004F8064600E0DB26D9F884706EB11FB9E4200BF054FF05E05B491A
:2050100000200870E42039468847002E40F09F80214628460CF0AAF9642009A90FF032FB43
:20503000464651463778DFF850A1087837B95046007809F0D5FD012805D085E009F0D0FD54
:20505000012840F081804D4EA01C87B20DF1250106F178000780E9200FF014FB9DF825006B
:205070004FF000094FF0020B4946012805D13C46C4F3022040F0180005E0241DA4B2C4F328
:20509000022040F0080005F8010D05F8014D34469DF82470A4F86A10002FC4F884500CBF0D
:2050B000374838486186C4F8C000374EC4F8800094F83D00CDF8109000F0F00040F003007C
:2050D00084F83D0070688DF814B080470B90DFF8BC80234F0A9804F13005012816D00428F8
:2050F00014D088B105280CD0032807D150461030007810F0C7FAC07B022807D004F16805CA
:2051100004E0DFF88C8001E004F14C05386A184B066D494658468DE80300D86804AA294617
:205130004346B0471B49184D0880A968002809D4194A92F900006834401C10700B98FC6013
:20515000884704E00B9888471A200BF0ABFE0DB0BDE8F08FDC0B00207B190020DC1900208B
:20517000481500204F1A0020091B00208A2E002088180020F81300209B0B002068110020B3
:205190004E9055550E7A55555C14002051AC0000F5DB0000B8180020561A00202DE9F04F13
:2051B0000646AE4CDFF8B892DFF8BCA220680F46ADF13C0D4FF0000B017DADF80CB0252908
:2051D00000F008816C3005A904F0B2FA002818BFC0B240F0408101A804A90CF001FC12F0A9
:2051F000ADF800280CBF41F2081543F2C82504A901A80CF0F5FB99F82F10019B32684FF40A
:205210007A784046484308FB1300801A8542C0F2DE80D9F80810C91A08FB01F1891A8D42C1
:2052300000F3D580854209DD002807DD95FBF8F04FF4916100B201FB002030609DF81F009E
:2052500000285CD042F204000DF135010EF0B0FE11F038FC044606980DA9241A42F2060087
:205270000EF0A6FE9DF834109DF81D00FF2904BF0A218DF83410FF2808BF0A209DF8342011
:2052900078499DF81C304546B4FBF1F1801880B2484399106943814298BF081C41F2081409
:2052B000241805A811F005FA9DF81C20D6F800C0B0FBF2F15143411A8BB241464B434A433A
:2052D000D51AA5EB0C0ED21A6546521B944201D9002A09D56242724513D2BEF1000F10D586
:2052F000B4FBF1F10AB203E06200B2FBF1F18AB231684FF4916303FB0215356001E0356849
:20531000584604460DF1120102A80CF069FB0298D9F808105E46B5FBF8F21018029081423C
:2053300003D999F82F30834204D9534603F158052D7835BB9DF81C0014190004A04298BF55
:20535000241A9DF81F00002808BF9DF8200016D09DF81C00B4FBF0F084B29DF833000FF084
:205370006FF99DF83120014620460FF001F9044611F08CF9024608A920460EF023FF544640
:205390000DE0814204D8BDF81200401CADF812005446BDF8120094F85B100CF045FF387057
:2053B0002E4D84F8B5002868007D052810D12F48007868B9387803A9ADF80C0042F20C00B9
:2053D00005F06EF9BDF80C00A4F8B00000E06526304640E011F0B2FF00280CBF41F208155E
:2053F00043F2C825224800784FF47A7404FB00F13068491BA1F5FA62824206D2A1F57A617D
:20541000B0FBF1F24A43801A306068460DF10E010CF0E6FA3068009999F82F2004FB01018E
:2054300054430091611A8D4210DCA4F5FA648C42BCBF00F5FA603060544694F85B10208F9F
:205450000CF0F2FE01465846397002E039785446652084F8B5100FB0BDE8F08FDC0B0020E5
:205470004C2B0020A0860100902A0020810B00207B2B00202DE9F04F002898461446ADF1BF
:205490002C0D00F0F78011F47C1F40F0F08011F00F0F00F0EF8007460591002006900A906B
:2054B0004FF0000A0990554608954FF0010BCDF810B0054650460790059805990BEA00004A
:2054D00021EA0B014FEA4B0B401E059100F0AF80401E74D0801E61D0001F40F0C28042F2CD
:2054F00005000DF10E010EF063FD9DF80E00002800F0B7801CB1276694F86B00069007202C
:20551000152607F8010B022301A907F8016B42F2010007F8013B0EF04BFD684603A90CF0EF
:205530005FFA06980EF0F8FC0099019A3E4640180090824206D8801ABDF80C300090581CA1
:20555000ADF80C00009B50085146814609041804030C19430004534610EB090041EB0A01CD
:2055700003F012F8BF1D0090BDF80C309DF80C009DF8002006F8010B181206F8010B9DF898
:20559000011006F8012B9DF8023006F8011B9DF8032006F8013B0935327061E0022015266F
:2055B00007F8010B042307F8016BB8F1000F07F8013B0CBF099898F800002D1D4EE01CB10A
:2055D000E76594F86B00069005201526049B07F8010B0DF10F0107F8016B42F2040007F828
:2055F000013B0EF0E5FC02A80FF0A2FC06980EF093FC02999DF80F209DF80F60069B0918E9
:20561000080200EB6200B0FBF6F002903E469DF808109DF8092006F8013B3F1D06F8011B61
:205630009DF80A3006F8012BED1D337018E00320152607F8010BB8F1000F07F8016B0346E7
:2056500007F8013B04BF0A9807F8010B05D098F8000007F8010B98F801006D1D07F8010BF9
:20567000ADB2059800287FF427AF2E4661E011F00F0F01D000205DE080468A4602264FF4AA
:20569000803908F1020509EA0A002AEA090A4FEA4909B0F580301AD0B0F5803014D0B0F575
:2056B00000300ED0B0F5802009D0B0F5002004D0B0F580102AD1072404E0062402E00524A1
:2056D00000E00424002704E00224012701E001242746A81C214600F091F947B104F00F0442
:2056F000C0F30A0141EAC42141F4004105E004F07F0400F0FF0141EA042105F8011B361853
:205710000912B61C2970B6B245196D1CBAF1000FB9D1022ED8BF00260BDDB01E4FF6FE7703
:2057300008F8010BB819C0F3022040F0A00088F8000030460BB0BDE8F08F70472DE9F04FF6
:20575000AC4C04F128000068ADF1240D0FF094F908B111F06DFBA248DFF89CA2DFF888B22F
:205770000068A24E089010F07DFF11F04BF9E569A769B5F57A7F13D0C01B4FF47A72002357
:20579000A5FB000102F000FF80464FF47A72002311F094FE2A46002302F0F6FEC01901E089
:2057B000A0EB0708A0618D488C49006820F00200086070688047DBF80010DBF8043045469E
:2057D0006918B1F57A7F0DD34FF47A72B1FBF2F2D2184FF47A73CBF804201F46B1FBF7F2FF
:2057F0005A43891ACBF80010B168884770688047DAF8041002466818B168CAF8040010461C
:205810008847DAF8000000285FD007464FF00009706880474FF000081FFAA5F3079083B981
:205830005FFA95F36BB93979E8B2884204DD79682846884209D20AE03879E9B2401A38712F
:2058500008E079682846884201D3414601E07968091A7960B88878B9FB8853B9FB6843B1C7
:205870003B8933B1B87A19460AF026FAF8687860B88808B9FB880BB13B896BB9B9F1000FAC
:2058900004BF3868CAF8000003D03868C9F800003868B846074601E0B9463F68B168079875
:2058B0008847B8F1000F0ED0B8F8043043B9B8F806302BB998F80A00B8F808100AF0FCF978
:2058D000404611F07FF8002FA2D144484349006840F002000860E06828B3804723E015F804
:2058F000060C2169A5F10C07032819D0E16A9DF816000978884210D115F8080C10F02AFBD7
:20591000B979012903D0022908BFA87000E02870002029460DF0F4FB05E011F089FA02E000
:2059300009B12846884708200727ADF81000716AADF8127004A88847069D0028CFD02948FD
:2059500000680088C8B1706880472649096800220D880A80B1688847089A00202946207065
:2059700090470546FF202070706880471D4909680A8815430D80B168884710F073FE0746B3
:20599000B7F1FF3F1CD0706807B9194F216AB94238BF0F1C80471C230546626AADF8023089
:2059B0000820ADF80000716A019268468847A16A3846491CA1620FF015FBB16828468847C9
:2059D00008200A27ADF808004FF0FF35ADF80A70716A039502A88847C5E6C04610E000E0B2
:2059F000D00B0000782E0020681A00205C1400208EC2F52858180020542E0020F0B5044636
:205A10000846ADF16C0D401E6BD0401E0DD0801E00F00381401E00F0E980401E00F0DB80CB
:205A3000401E00F0A88000203CE142F2010007A90EF0BEFA42F20B0008A90EF0B9FA42F233
:205A500006000DF165010EF0B3FA42F207000DF166010EF0ADFA42F2050019A90EF0A8FA41
:205A700004A80AF033F805460DF1670142F209000EF09EFA9DF86700002808BF002303D0E0
:205A9000022010F024FB034607A8006808A920600988271D3C46B81C218005F007079DF8C0
:205AB00065609DF864109DF8662000F8011B9DF8674000F8016B03F0030600F8012B6207B0
:205AD00047EA926104AC41EA8611012700F8011B9DF8672000942946019706F0A9FE0A3056
:205AF00099E042F206000DF165010EF061FA42F207000DF166010EF05BFA42F2040019A939
:205B10000EF056FA04A809F0E1FF05460DF1670142F208000EF04CFA9DF86700002808BF86
:205B3000002303D0012010F0D2FA03469DF864009DF8657004F8010B9DF8666004F8017BEB
:205B50009DF867209DF86770790704F8016B03F0030705F0070646EA916004AE40EA871032
:205B7000294604F8010B002700962046019706F05FFE001D4FE042F2150011A90EF018FA31
:205B900013AD42F2160029460EF012FA15AE42F2170031460EF00CFA17AF42F21800394658
:205BB0000EF006FA11A801682160406860606A6804F108035A6028681860306803F10801A3
:205BD000086074684C60386801F1080528607A686A60202066E042F214000DF122010EF005
:205BF000E7F9BDF8221002200A1258E009A8002120220BF0BBFE42F2130009A90EF0D8F9C8
:205C100009A811F059FD024609A920460AF012FC09A811F051FD80B244E042F20E0002A9C1
:205C30000EF0C6F90DF10A0142F20F000EF0C0F90DF10B0142F20A000EF0BAF903A942F2BB
:205C500010000EF0B5F90DF10D0142F211000EF0AFF90DF10E0142F212000EF0A9F9BDF8D9
:205C700008009DF80B209DF80C709DF80D609DF80E509DF80A1004F8010B02F00102001288
:205C900004F8010B07F0010042EA400206F0010042EA800205F0070042EA4012042004F847
:205CB000011B22701BB0F0BD2DE9F04F06469E48001D0068ADF1340D80470B900AA982200C
:205CD00005F06CF89DF8280018BB00248DF828404FF6FF75ADF804509DF82800ADF8065050
:205CF000FF2108228DF8000002A811F0F6FF8DF81840D420694602F041FD9DF82800401C5C
:205D1000C0B28DF828000328E4DB82200AA902F035FD0020DFF808A2DFF808828DF8280042
:205D300081469DF828008DF8019069468DF80000D02005F033F801274D46E8B99DF80B3049
:205D5000012B07D19DF80A0020B90DF1020011F085FB88B9747B002C0CBF052209224F4628
:205D70009C4209D10DF1020006F10E0110F07AFF002818BF012507D1002F40F0BF801DB96B
:205D9000707F002800F0BA804C469DF828008DF8214008A98DF82000D12004F0FFFF00281C
:205DB00032D19DF82200FF282ED08DF800006946D42004F0F3FF002833D102A8311D082298
:205DD00010F050FF00B330887788ADF80400ADF8067045B1307B9DF82810B7698DF818000B
:205DF0000DEB81010F61D420694602F0C7FC75B1307F9DF82310884209D08DF8230008A9B8
:205E1000D12002F0BBFC02E0641C032CBDDB032C74D14F468DF80070D420694604F0BEFF5D
:205E300028B1DAF808100B988847192074E002AB184611F013FB4C4600B101242046341D57
:205E500030B918462146082210F00CFF00284AD030887388327BADF804009DF82810ADF892
:205E70000630002D8DF818200DEB810000F110000CBF4946B1690822016002A8214611F067
:205E9000F9FA98F8400030B1D8F890201AB19DF80010204690474C469DF828008DF82140EC
:205EB00008A98DF82000D12004F078FFE82807D09DF82200FF2803D0641C032CECDB10E022
:205ED0009DF800008DF82490337F8DF8220069468DF82330D42002F051FC08A9D12002F03D
:205EF0004DFC032C02DB7F1C032F93DB032F05D1DAF808100B9888471A200DE09DF82800BA
:205F1000401CC0B202288DF82800FFF60AAFDAF808100B98884748460DB0BDE8F08FC0464D
:205F30005C140020B81300205C1400208D492DE9F04F0A680546ADF16C0D15A80260496877
:205F50004160894C94F8B30005F1280A05F12807002800F004816878002840F00081FF20BA
:205F7000824B8DF818001E78E86C012105AA02F0EFFCDFF8FC91DFF8048228B99DF81800C0
:205F900008B99DF81C6068BBA88900F00700022814BF04200520A873A88900F00700032820
:205FB00007D16B684046001D01681878042800F0958095F83000022814D14846007801285E
:205FD00010D06C4905F1280002220E46203110F05DFC38B906F116010DF13E0011F02DFE75
:205FF0000DF13E07686E002800F0B980012102AA0AF0F8FD002840F0B2809DF80800A87328
:20601000E86C40B1394612AA0DF14A03FCF7D2FC002840F0A4800DF14A000090686E39463B
:2060300012AB06F0CDFF002840F099804846007801284FD04FF4005013A90DF0B9FF13A853
:2060500015A9082210F022FC30B113A83946082210F01CFC00283DD194F85900002839D081
:20607000A66CB4F8445042F2010004A90DF0A0FF049A4FF000410020E2FB0610061C206D60
:2060900011F060FB3C49861908600498B04202D86D1C361AADB24746786880475FFA80F863
:2060B000206CB04204D1208FA84208BF002608D026642587002084F8350010F003FD0126F1
:2060D000E064B968404688470EB10BF069FE012084F85800002084F8590040E0CDF85CA00A
:2060F0008847284CB3464FF000090A26189095F830702348CDF864A0804610F807A0207AC4
:20611000B84206D119995246204610F0ABFD012804D0761E04F10C04F1D100E0A1465FEADE
:2061300009070FD198F80601164F461C810088F8066101EBC001F0B27F180A2804BF00209E
:2061500088F80601179938460A2211F093F90B491898896887F80AB088470420A8731BB0BA
:20617000BDE8F08F840B0000902A002088180020B8130020580B0020742E00205C14002002
:2061900060100020EE100020F0B500214C22ADF15C0D02A80BF0EAFBF22015A911F02AFB86
:2061B0008B4DBDF8540015A9A5F86C00F32011F021FBBDF854000DF10901A5F86E00E220D9
:2061D00011F008FBE88CADF81200410806D305F11001096805A80160BDF81200810805D3B0
:2061F000291D098806A80180BDF81200C10807D305F1140109680DF11A000160BDF8120063
:20621000010908D30DF11E0005F150012C220AF011F9BDF81200400903D3E86A1490AF6ADF
:2062300013976C48007800280CBF0121002101200BF018F8BDF8120041082CBF0F240B24B9
:20625000810824BFA41CA4B2C10824BF241DA4B2010924BF2C34A4B2400924BF0834A4B208
:20627000204610F0E7F8071C00F0AF8005260DF1090100F8016B0A68026049684160BDF815
:206290001210083011F0F2FBBDF81210844648080BD3BDF81410604611F0E8FBBDF8161099
:2062B00011F0E4FBBDF812108446880807D3BDF81810604611F0DAFBBDF812108446C80819
:2062D0000BD3BDF81A10604611F0D0FBBDF81C1011F0CCFB8446BDF812103F4A9388080980
:2062F00059D3BDF81E10604611F0C0FBBDF8201011F0BCFBBDF8221011F0B8FBBDF82410FC
:2063100011F0B4FBBDF8261011F0B0FBBDF8281011F0ACFBBDF82A1011F0A8FBBDF82C100D
:2063300011F0A4FBBDF82E1011F0A0FBBDF8301011F09CFBBDF8321011F098FBBDF834100D
:2063500011F094FBBDF8361011F090FBBDF8381011F08CFBBDF83A1011F088FBBDF83C100D
:2063700011F084FB194611F081FB117811F07EFBBDF8421011F07AFBBDF8441011F076FBB6
:20639000BDF8461011F072FBBDF8481011F06EFBBDF812108446480906D3139960460FF0E1
:2063B0003CF814990FF039F805F11801224630463B4605F0DFFB0820ADF80260074D019764
:2063D0002968ADF800006846884717B0F0BDC046481200200A1600200C0D002080140020D9
:2063F0002DE9F043071CADF1240D00F01381F86B002800F00F81B7F84020002A00F00A810F
:20641000007817F130014FF0000603D097F83810052902D0002E00F0FD80DFF80482401E76
:2064300069D0801E55D07F4CC01E3DD0001F40F0F1807A4DA878002800F0EC8003A831464D
:2064500004220BF093FAB7F840002A78032840F0E180F86B401C11F00FFB434603F178076B
:206470003988012A01F10101398009D0D988411A022905DBB3F87A208918491EA3F87A1061
:20649000D880E7782E70400808D2012F00F0C2800121E17030460AF0E5FEBBE0002F00F093
:2064B000B980E6703146F5E7012A40F0B3800725E0788DF8205000280CBF0121311C30460B
:2064D000E1700AF0CFFEE07802228DF8210028460CE0012A40F09E804346B3F858000122F0
:2064F000401CA3F8580004208DF82000394608AB05F040FB8EE0684631460C220BF036FA26
:20651000B7F840000B285ED1FC6B14F8010BC14689F82400204611F0AFFAA41C0346204670
:2065300011F013F80546201D11F00FF88046387A4C4689F82000022806D0396804F1180056
:2065500001607A68426001E03888208303F00100190928BF40F00800590928BF40F0100044
:20657000E084834218BF0226B5F57A7FADF8020016D32D48A84213D3A56210F0FDFF8146A1
:2065900010F0FAFF00EB092910F0F6FF00EB0920B0FBF5F16943401A0A300FF07BFC00E0A5
:2065B0000226A06AB8F57A7F019008D342F21070404504D3C4F82C8010F0F2FF00E0022616
:2065D000E06A029001E04446012602258DF8016068468DF800500DF037FD0DF111009DF8D8
:2065F00001108DF8105011F041FABDF8021011F03DFA01990EF011FF02990EF00EFF39468D
:206610000D2204AB284605F0B5FAB4F85E00401CA4F85E0009B0BDE8F083C0460C13002004
:20663000481200200C0D0020407E05002DE9FE4F0646307D01280AD196F917000CF0D0FC06
:206650004FF6FF71814208BFE82000F00681F07B834A20B91146491C0978022908DB0128E7
:2066700003D110460078022802DBF120BDE8FE8F346AB6F8289096F8347096F835B0B58B35
:206690004FF000085FEA040A17D0764890F84030002B2ED0816D00292BD004F0FF008847B2
:2066B0007049896D04B20AF47F008847001900B2001D00B2C43084B200E0C4240DB12D1D85
:2066D000ADB269480078012809D147B16748C11991F8048010F80B002418641DA4B205EB7B
:2066F000090020184044801C80B210F0BDF8071C02D11A20BDE8FE8F08EB09002B193881E7
:20671000002D07EB030078600EBF0020E019801C00217422C7F8A00007F10C0011F0DDFAFB
:206730004C442D1907F13C00FF211022A7F84C5011F0D3FA07F12C000F21102211F0CDFA96
:2067500000243C707C707868716A328D09F072FE07F1800006F12C010B2209F06BFE07F167
:206770008C00314610F0DEFC7089A7F89600307B87F89800707B06F10E0587F899002A689D
:2067900069460A60686848609DF800102046012908BF01209DF80110012908BF40F0040070
:2067B0009DF80210012908BF40F008009DF80310012908BF40F010009DF80410012908BF86
:2067D00040F020009DF80510012908BF40F040009DF80610012908BF40F080009DF8071056
:2067F000012908BF40F48070A7F89A00B07D87F89C00F07D87F89D00B28BA7F8A42022B1F7
:20681000D7F8A000B16909F015FEB07F87F8A600306AC7F8A800B7F8A400C0B1D7F8A0004B
:20683000A8B17868401E7860F82101707868401E78600470B7F8A410B7F8A4607868401A75
:20685000786039897018801C38817868B8650848007839460CF054FC2046BDE8FE8FC04683
:206870000A0C0020B8130020900B0020640B0000E41400202DE9FE4FDFF83092074609F162
:20689000040000688047DFF8C8A100248346002F0AF1020004703DD00FF0E0FC6B4D2146E1
:2068B000FC22284611F019FAFF210822681D11F014FAFF21082205F10E00697311F00DFA18
:2068D0000227A84603224FF6FF710120AA77042329849E3505F8040F6B70AA707F1EEB70D1
:2068F000F8D145464FF0050C022705F1F00606F8040F737086F802C07F1EF070F7D1284668
:2069100085F8F820AE3020F8181B20F8181B01800227AF70554695F8400010B1686C00B1E7
:2069300080470CF037FA62481C3090F9000010F09BFE0FF0A9FC10F08DFE10F047FD10F0C8
:2069500039FDDFF81081072608F1240757F8040B00B18047761EF9D13F4804604460046110
:206970004FF470018160C16008F1040007680FB10EF002FA3A48394F006888F80E40C0B17A
:2069900012E040460EF0EEFE029002A80EF0F4F921E040460EF0E6FE019001A80EF0ECF9D8
:2069B00014E068460EF0E8F90AF018FC00280090F7D12C480078012803D02046014600F033
:2069D000DBFE2948294E047006F12408706A0028DFD108F10408B06A0028D2D17462B462C7
:2069F0002348A86186F82E40224BEB6186F82F40214A2A622149696286F83040204BAB62EF
:206A1000204AEA6220492963234969601F4E6E631F4B2C70214EAB631E4AAE60204BEA6397
:206A3000214EEB601F4AD9F808102A6158466E61884707F1DD01522000F03CF897F8F70081
:206A50000DF0F2F92046BDE8FE8FC04604280020B8130020E4140020381A0020A40A002011
:206A7000782E0020091B0020852E0020DC0B00202FEE0000337C0100A1670100298B000098
:206A90001DDB0000D56B0100D5780100E5BE0000BDA300004D5201003FC3000001AF00000A
:206AB00071390100A9030100DD2C01005C1400207E0B00202DE9FE43844E80460F46B8F13E
:206AD000450F06D13046342210F0D4FCC6F8BC60F9E010F064F93B2808BFF42000F0F4802D
:206AF0007B4C04EB8004A07810B9E178002937D0E178814208BFFB2000F0E680B8F1580F7E
:206B100024D0B8F1600F1AD0B8F1E00F0ED0B8F1E80F05D03A7890421FDC91421DDB1FE03B
:206B30006C493878097888421AD1CCE097F900000CF056FA4FF6FF7181420ED010E038881C
:206B50000A280ADBB0F5804F07DA09E038888F2803DB47F60251814202DCE820BDE8FE831C
